{
  "address": "0xba350c11Cb19bA4AFDcc9aD0698fE495F982bAF4",
  "abi": [
    {
      "inputs": [
        {
          "internalType": "contract SmartWalletFactory",
          "name": "_factory",
          "type": "address"
        }
      ],
      "stateMutability": "nonpayable",
      "type": "constructor"
    },
    {
      "inputs": [
        {
          "internalType": "address",
          "name": "_owner",
          "type": "address"
        }
      ],
      "name": "createWallet",
      "outputs": [
        {
          "internalType": "contract IWallet",
          "name": "",
          "type": "address"
        }
      ],
      "stateMutability": "payable",
      "type": "function"
    },
    {
      "inputs": [],
      "name": "factory",
      "outputs": [
        {
          "internalType": "contract SmartWalletFactory",
          "name": "",
          "type": "address"
        }
      ],
      "stateMutability": "view",
      "type": "function"
    },
    {
      "inputs": [
        {
          "internalType": "address",
          "name": "_owner",
          "type": "address"
        },
        {
          "internalType": "bytes32",
          "name": "_data",
          "type": "bytes32"
        }
      ],
      "name": "generateContractSignature",
      "outputs": [
        {
          "internalType": "bytes32",
          "name": "",
          "type": "bytes32"
        }
      ],
      "stateMutability": "view",
      "type": "function"
    },
    {
      "inputs": [
        {
          "internalType": "address",
          "name": "_owner",
          "type": "address"
        },
        {
          "internalType": "uint256",
          "name": "_blockNumber",
          "type": "uint256"
        },
        {
          "internalType": "uint256",
          "name": "_blockTimestamp",
          "type": "uint256"
        },
        {
          "internalType": "bytes32",
          "name": "_dataHash",
          "type": "bytes32"
        }
      ],
      "name": "recoverContractSignature",
      "outputs": [
        {
          "internalType": "bytes32",
          "name": "",
          "type": "bytes32"
        }
      ],
      "stateMutability": "view",
      "type": "function"
    },
    {
      "inputs": [],
      "name": "wallet",
      "outputs": [
        {
          "internalType": "contract ECDSAWallet",
          "name": "",
          "type": "address"
        }
      ],
      "stateMutability": "view",
      "type": "function"
    },
    {
      "inputs": [
        {
          "internalType": "address",
          "name": "_owner",
          "type": "address"
        },
        {
          "internalType": "uint256",
          "name": "_nonce",
          "type": "uint256"
        }
      ],
      "name": "walletAddress",
      "outputs": [
        {
          "internalType": "address",
          "name": "",
          "type": "address"
        }
      ],
      "stateMutability": "view",
      "type": "function"
    }
  ],
  "transactionHash": "0x6f03c2b00544eea39f6a5f769243ba5df9dac6616755285a6faaf942a5bc5a21",
  "args": [
    "0x36Aef0c16b030BC508C8d99867ca3b2be1dF9fA2"
  ],
  "numDeployments": 2,
  "solcInputHash": "d94911f75ee361ed64468f410b5a2429",
  "bytecode": "0x60803461018a57601f615b3138819003918201601f19168301926000926001600160401b03928386118387101761017657816020928492604098895283398101031261017257516001600160a01b03808216929091839003610150578451906154088083019182118383101761015e579082916107298339039084f08015610154571660018060a01b03199080826001541617600155803b15610150578380916024875180948193636fc0109960e11b83528160048401525af1801561014657610133575b50825490811682178355821617803b1561012f578180916024855180948193630ac7cb5b60e21b83523060048401525af180156101255761010e575b825161057090816101b98239f35b610118829161018f565b6101225780610100565b80fd5b83513d84823e3d90fd5b5080fd5b61013f9093919361018f565b91386100c4565b85513d86823e3d90fd5b8380fd5b84513d85823e3d90fd5b634e487b7160e01b86526041600452602486fd5b8280fd5b634e487b7160e01b85526041600452602485fd5b600080fd5b6001600160401b0381116101a257604052565b634e487b7160e01b600052604160045260246000fdfe60806040818152600436101561001457600080fd5b600091823560e01c9081631238ac7c1461035057508063521eb27314610329578063b054a9e81461022d578063c45a015514610208578063ed6378f6146101a35763f227a2d81461006457600080fd5b3461019f578060031936011261019f5761007c61040c565b815160243560208083019182523360601b6bffffffffffffffffffffffff191660408401524360548401524260748401529492610123928692906100cd81609481015b03601f19810183528261048e565b519020906001600160a01b03908186541691806001541690885192636fc0109960e11b878501521660248301526024825261010782610427565b87519586948593849363d1e64ad760e01b85526004850161050f565b03915afa9182156101945791610167575b508151838101916bffffffffffffffffffffffff199060601b1682526014815261015d81610472565b5190209051908152f35b6101879150833d851161018d575b61017f818361048e565b8101906104f0565b38610134565b503d610175565b8351903d90823e3d90fd5b5080fd5b503461019f57608036600319011261019f576101bd61040c565b815160643560208083019182523360601b6bffffffffffffffffffffffff19166040840152602435605484015260443560748401529492610123928692906100cd81609481016100bf565b503461019f578160031936011261019f576001600160a01b0360209254169051908152f35b50906020918260031936011261019f57906102c19161024a61040c565b91846001600160a01b039384835416856001541686865193636fc0109960e11b868601521660248401526024835261028183610427565b85518098819482937feebc8e19000000000000000000000000000000000000000000000000000000008452600484015288602484015260448301906104b0565b039134905af193841561031d5781946102de575b50505191168152f35b909193508481813d8311610316575b6102f7818361048e565b8101031261019f575190828216820361031357509138806102d5565b80fd5b503d6102ed565b509051903d90823e3d90fd5b503461019f578160031936011261019f576020906001600160a01b03600154169051908152f35b9050346104085781600319360112610408576103c391602061037061040c565b6001600160a01b0393848754169085806001541693636fc0109960e11b86840152166024820152602481526103a481610427565b845180978194829363d1e64ad760e01b8452602435916004850161050f565b03915afa9283156103fe57602094936103df575b505191168152f35b6103f7919350843d811161018d5761017f818361048e565b91386103d7565b81513d86823e3d90fd5b8280fd5b600435906001600160a01b038216820361042257565b600080fd5b6060810190811067ffffffffffffffff82111761044357604052565b7f4e487b7100000000000000000000000000000000000000000000000000000000600052604160045260246000fd5b6040810190811067ffffffffffffffff82111761044357604052565b90601f8019910116810190811067ffffffffffffffff82111761044357604052565b919082519283825260005b8481106104dc575050826000602080949584010152601f8019910116010190565b6020818301810151848301820152016104bb565b9081602091031261042257516001600160a01b03811681036104225790565b939291610535906001600160a01b036040931686526060602087015260608601906104b0565b93015256fea26469706673582212204fb92c51b59925cec92e23536255e9706dec836a0c33869b36b28d9f689d18a964736f6c6343000811003360a0806040523461003157306080526153d1908161003782396080518181816106b201528181610d8e0152610fdf0152f35b600080fdfe60806040526004361015610023575b361561001957600080fd5b610021612d50565b005b60003560e01c806309b468611461025357806323cdcb111461024a578063252f5a17146102415780632c67123f1461023857806334fe6a651461022f5780633659cfe61461022657806336c785161461021d578063429c9758146102145780634967c38d1461020b5780634f1ef286146102025780635247924c146101f957806352d1902d146101f05780635ae6bd37146101e757806364d4c819146101de57806365fb372c146101d5578063677b9b5f146101cc57806371c25f3f146101c35780637722ec9e146101ba57806387517c45146101b15780638901e25b146101a85780638da5cb5b1461019f578063927da105146101965780639fa5ea7e1461018d578063a5fc5a4314610184578063affed0e01461017b578063df80213214610172578063e290f6e1146101695763f0702e8e0361000e57610164611f84565b61000e565b50610164611e9b565b50610164611ddd565b50610164611dae565b50610164611d81565b50610164611c45565b50610164611ba4565b50610164611b6f565b50610164611a88565b50610164611923565b506101646118f6565b50610164611752565b5061016461143e565b50610164611103565b506101646110c7565b5061016461109a565b50610164610fc3565b50610164610f34565b50610164610d48565b50610164610d1e565b50610164610a83565b50610164610839565b50610164610688565b50610164610650565b506101646105b2565b50610164610459565b5061016461042c565b50610164610403565b50634e487b7160e01b600052604160045260246000fd5b6080810190811067ffffffffffffffff82111761028f57604052565b61029761025c565b604052565b6060810190811067ffffffffffffffff82111761028f57604052565b67ffffffffffffffff811161028f57604052565b6040810190811067ffffffffffffffff82111761028f57604052565b6020810190811067ffffffffffffffff82111761028f57604052565b60c0810190811067ffffffffffffffff82111761028f57604052565b90601f8019910116810190811067ffffffffffffffff82111761028f57604052565b60405190610100820182811067ffffffffffffffff82111761028f57604052565b6040519061037082610273565b565b60405190610370826102cc565b60209067ffffffffffffffff811161039d575b601f01601f19160190565b6103a561025c565b610392565b7f302e302e3100000000000000000000000000000000000000000000000000000060206040516103d9816102cc565b6005815201527fae209a0b48f21c054280f2455d32cf309387644879d9acbd8ffc19916381188590565b503461042757600036600319011261042757602061041f6103aa565b604051908152f35b600080fd5b50346104275760203660031901126104275760043560005260696020526020604060002054604051908152f35b503461042757602036600319011261042757602061041f600435612565565b90600182811c921680156104a8575b602083101461049257565b634e487b7160e01b600052602260045260246000fd5b91607f1691610487565b90604051918260008254926104c684610478565b90818452600194858116908160001461053357506001146104f0575b505061037092500383610320565b9093915060005260209081600020936000915b81831061051b575050610370935082010138806104e2565b85548884018501529485019487945091830191610503565b91505061037094506020925060ff191682840152151560051b82010138806104e2565b60005b8381106105695750506000910152565b8181015183820152602001610559565b9060209161059281518092818552858086019101610556565b601f01601f1916010190565b9060206105af928181520190610579565b90565b50346104275760203660031901126104275760043560005260686020526105f36105df60406000206104b2565b604051918291602083526020830190610579565b0390f35b7f454344534157616c6c65740000000000000000000000000000000000000000006020604051610626816102cc565b600b815201527fa493ff226186ed9712809d71f428d7f274876a4f2b9236f1762ec84b059ae32b90565b503461042757600036600319011261042757602061041f6105f7565b6001600160a01b0381160361042757565b35906103708261066c565b5034610427576020366003190112610427576004356106a68161066c565b6001600160a01b0390817f000000000000000000000000000000000000000000000000000000000000000016916106df83301415611fb4565b61070e7f360894a13ba1a3210667c828492db98dca3e2076cc3735a920a3ca505d382bbc938285541614612025565b3033036104275760405190610722826102e8565b600082527f4910fdfa16fed3260ed0e7147f7cc6da11a60208b5b9406d12a635614ffd91435460ff161561075c5750506100219150612123565b6020600491604094939451928380926352d1902d60e01b825286165afa60009181610809575b506107f65760405162461bcd60e51b815260206004820152602e60248201527f45524331393637557067726164653a206e657720696d706c656d656e7461746960448201527f6f6e206973206e6f7420555550530000000000000000000000000000000000006064820152608490fd5b0390fd5b6100219361080491146120b2565b6121d0565b61082b91925060203d8111610832575b6108238183610320565b810190612096565b9038610782565b503d610819565b5034610427576080366003190112610427576004356108578161066c565b602435906108648261066c565b604435916108718361066c565b6064359161087e8361066c565b3033148015610a0b575b610891906123b5565b6108ce336108b6856108b6856001600160a01b0316600052606c602052604060002090565b906001600160a01b0316600052602052604060002090565b80549065ffffffffffff8260a01c1642116109c6576001600160a01b0380921690828203610906575b505080610021951693166152d2565b90958683821611600014610999576040517fe3082aa500000000000000000000000000000000000000000000000000000000815260206004820152602a60248201527f6661696c656420746f207472616e736665722c20696e73756666696369656e7460448201527f20616c6c6f77616e6365000000000000000000000000000000000000000000006064820152608490fd5b6109c0839283836100219a03166001600160a01b03166001600160a01b0319825416179055565b956108f7565b604051622bd21560e71b815260206004820152601e60248201527f7472616e7366657220616c6c6f77616e636520686173206578706972656400006044820152606490fd5b506108916001600160a01b0360008051602061537c833981519152541633149050610888565b929192610a3d8261037f565b91610a4b6040519384610320565b829481845281830111610427578281602093846000960137010152565b9080601f83011215610427578160206105af93359101610a31565b503461042757604080600319360112610427576004803560243567ffffffffffffffff811161042757610ab99036908401610a68565b805115610ada57610aca925061268e565b51630b135d3f60e11b8152602090f35b50610af7610af282600052606a602052604060002090565b6104b2565b805115610cd25790610bab91610b24610b186065546001600160a01b031690565b6001600160a01b031690565b9085518092634c9484df60e01b8252818760209384935afa928315610cc5575b600093610c96575b508084610b6e60008051602061537c833981519152546001600160a01b031690565b895197889283926376b1bc7b60e11b8452429043908d8601909493926060926001600160a01b036080840197168352602083015260408201520152565b03816001600160a01b038097165afa948515610c89575b600095610c64575b509081610bdd9282518301019101612ac8565b949190923391161493841594610c59575b50508215610c4e575b5050610c035750610aca565b6107f2915191829162461bcd60e51b8352820160609060208152601a60208201527f696e76616c696420736d61727420636f6e74726163742073696700000000000060408201520190565b141590503880610bf7565b141592503880610bee565b819550610c8190610bdd93923d8811610832576108238183610320565b949091610bca565b610c916120a5565b610bc2565b81610cb79294503d8511610cbe575b610caf8183610320565b810190612ab3565b9138610b4c565b503d610ca5565b610ccd6120a5565b610b44565b6107f283855191829162461bcd60e51b8352820160609060208152600760208201527f6e6f20646174610000000000000000000000000000000000000000000000000060408201520190565b503461042757600036600319011261042757602060405160008051602061537c8339815191528152f35b50604036600319011261042757600435610d618161066c565b60243567ffffffffffffffff811161042757610d81903690600401610a68565b906001600160a01b0391827f00000000000000000000000000000000000000000000000000000000000000001692610dbb84301415611fb4565b610dea7f360894a13ba1a3210667c828492db98dca3e2076cc3735a920a3ca505d382bbc948286541614612025565b303303610427577f4910fdfa16fed3260ed0e7147f7cc6da11a60208b5b9406d12a635614ffd91435460ff1615610e275750506100219150612123565b6020600491604094939451928380926352d1902d60e01b825286165afa60009181610ed0575b50610ebd5760405162461bcd60e51b815260206004820152602e60248201527f45524331393637557067726164653a206e657720696d706c656d656e7461746960448201527f6f6e206973206e6f7420555550530000000000000000000000000000000000006064820152608490fd5b61002193610ecb91146120b2565b6122a2565b610ee991925060203d8111610832576108238183610320565b9038610e4d565b6020815260806001600160a01b03808451166020840152602084015160408401526060610f2a6040860151848387015260a0860190610579565b9401511691015290565b5034610427576020366003190112610427576105f36040600060608251610f5a81610273565b8281528260208201528184820152015260043560005260666020528060002090805191610f8683610273565b60036001600160a01b039182815416855260018101546020860152610fad600282016104b2565b8486015201541660608301525191829182610ef0565b5034610427576000366003190112610427576001600160a01b037f0000000000000000000000000000000000000000000000000000000000000000163003611030576040517f360894a13ba1a3210667c828492db98dca3e2076cc3735a920a3ca505d382bbc8152602090f35b608460405162461bcd60e51b815260206004820152603860248201527f555550535570677261646561626c653a206d757374206e6f742062652063616c60448201527f6c6564207468726f7567682064656c656761746563616c6c00000000000000006064820152fd5b503461042757602036600319011261042757600435600052606a6020526105f36105df60406000206104b2565b50346104275760003660031901126104275760206040517f8b73c3c69bb8fe3d512ecc4cf759cc79239f7b179b0ffacaa9a75d522b39400f8152f35b503461042757602036600319011261042757600435600052606660205260406000206001600160a01b0390818154169061116d600182015493600361114a600285016104b2565b930154169160405194859485526020850152608060408501526080840190610579565b9060608301520390f35b60209067ffffffffffffffff8111611191575b60051b0190565b61119961025c565b61118a565b6064359065ffffffffffff8216820361042757565b359065ffffffffffff8216820361042757565b9160609283818403126104275760408051916111e18361029c565b8294813567ffffffffffffffff811161042757820181601f820112156104275780359061120d82611177565b9161121a86519384610320565b808352602093848085019260071b84010192818411610427578501915b8383106112605750505050848495969798505261125581830161067d565b908501520135910152565b60808383031261042757856080918d8a519061127b82610273565b86356112868161066c565b8252838701356112958161066c565b848301526112a48c88016111b3565b8c8301526112b38188016111b3565b90820152815201920191611237565b9080601f830112156104275781356112d981611177565b926040916112e983519586610320565b808552602093848087019260051b8401019381851161042757858401925b858410611318575050505050505090565b67ffffffffffffffff843581811161042757860191608080601f1985880301126104275784519061134882610273565b8a8501356113558161066c565b8252858501358b830152606090818601358784015285013593841161042757611385878c80979681970101610a68565b90820152815201930192611307565b919061010083820312610427576113a9610342565b9267ffffffffffffffff813581811161042757836113c89184016111c6565b8552602082013581811161042757836113e29184016112c2565b602086015260408201359081116104275760e0926114019183016112c2565b60408501526114126060820161067d565b60608501526080810135608085015260a081013560a085015260c081013560c0850152013560e0830152565b50346104275760608060031936011261042757600467ffffffffffffffff8135818111610427576114729036908401611394565b602435828111610427576114899036908501610a68565b916044359081116104275760409261165e6114aa6116649336908801610a68565b84876114c1610b186065546001600160a01b031690565b8851928391634c9484df60e01b83528260209c8d9485935afa938415611745575b60009461170e575b508161163d61155f928261150d8982611649986116599b9c518301019101614387565b96909361152661152060e0830151612565565b91614e31565b90604291604051917f19010000000000000000000000000000000000000000000000000000000000008352600283015260228201522090565b998a986001600160a01b0361158960008051602061537c833981519152546001600160a01b031690565b9160408c6115ca9151988997889687956376b1bc7b60e11b87528601909493926060926001600160a01b036080840197168352602083015260408201520152565b0392165afa908115611701575b6000916116e4575b508c51308482019081526020810188905260408101839052909461161f9186606082010396611616601f1998898101835282610320565b519020146143a2565b8c513093810193845260208401989098526040830152869160600190565b03908101855284610320565b600052606a602052604060002090565b612f04565b82613169565b015160005b81519063ffffffff811691821015610021576116d982611698866116906116df9688612e27565b510151614599565b6116b6610b186116a88388612e27565b51516001600160a01b031690565b90876116d0886116c6848a612e27565b5101519288612e27565b51015191614538565b50612dc5565b611669565b6116fb9150833d8511610832576108238183610320565b386115df565b6117096120a5565b6115d7565b61165994509161163d61155f928261150d61173861164997833d8511610cbe57610caf8183610320565b98505094509250506114ea565b61174d6120a5565b6114e2565b5034610427576080366003190112610427576004803567ffffffffffffffff8111610427576117849036908301610a68565b60243561179260443561066c565b606435906117a08351615230565b82516117ab83612600565b116118c157600090815b60ff908184169185831015610021576117e584938890604102016020810151906060604082015191015160001a92565b949092909116806118a55750506001600160a01b03169161180586612600565b811061187057611817908785856128fd565b6001600160a01b03809116908216111561183b5761183590926125e2565b916117b5565b6107f28660405191829162461bcd60e51b8352820160609060208152600560208201526423a998191b60d91b60408201520190565b6107f28860405191829162461bcd60e51b83528201606090602081526005602082015264475330323160d81b60408201520190565b916118b293949192612c77565b906118bc82612aec565b611817565b6107f28460405191829162461bcd60e51b83528201606090602081526005602082015264047533032360dc1b60408201520190565b50346104275760203660031901126104275760043560005260676020526105f36105df60406000206104b2565b5034610427576080366003190112610427576004356119418161066c565b60243561194d8161066c565b6044356119598161066c565b61196161119e565b903033148015611a62575b611975906123b5565b33600052606c602052611a17816119a7856108b6886040600020906001600160a01b0316600052602052604060002090565b6119fc65ffffffffffff808716968715600014611a5b575042165b82547fffffffffffff000000000000ffffffffffffffffffffffffffffffffffffffff1660a09190911b65ffffffffffff60a01b16178255565b906001600160a01b03166001600160a01b0319825416179055565b604051926001600160a01b03928380931685526020850152169216907fda9fa7c1b00402c17d0161b249b1ab8bbec047c5a52207b9c112deffd817036b60403392a4005b90506119c2565b506119756001600160a01b0360008051602061537c83398151915254163314905061196c565b503461042757600080600319360112611b6c578054611abe60ff8260081c161580928193611b5e575b8115611b3e575b50612400565b80611ad1600160ff196000541617600055565b611b25575b611ade612d7e565b611ae55780f35b611af561ff001960005416600055565b604051600181527f7f26b83ff96e1f2b6a682f133852f6798a09c465da95921460cefb384740249890602090a180f35b611b3961010061ff00196000541617600055565b611ad6565b303b15915081611b50575b5038611ab8565b6001915060ff161438611b49565b600160ff8216109150611ab1565b80fd5b50346104275760003660031901126104275760206001600160a01b0360008051602061537c8339815191525416604051908152f35b503461042757606036600319011261042757600435611bc28161066c565b611c11602435611bd18161066c565b6108b660443591611be18361066c565b6001600160a01b03809516600052606c6020526040600020906001600160a01b0316600052602052604060002090565b54604080519282166001600160a01b0316835265ffffffffffff60a083901c16602084015260d09190911c90820152606090f35b503461042757602080600319360112610427576004803567ffffffffffffffff9182821161042757366023830112156104275781810135928311610427576024820191602436918560051b0101116104275760005b63ffffffff811684811015610021574786611cb6838888614413565b013511611d1f57906116d984836001600160a01b03611d13611d0c611d028c611cf8868e611ce8611d1a9d828c614413565b3599611cf38b61066c565b614413565b0135948c8c614413565b6060810190614443565b3691610a31565b9216614538565b611c9a565b6107f28360405191829162461bcd60e51b8352820160809060208152602c60208201527f536d61727457616c6c65743a20696e73756666696369656e742062617365206160408201526b737365742062616c616e636560a01b60608201520190565b503461042757602036600319011261042757600435600052606b6020526105f36105df60406000206104b2565b503461042757600036600319011261042757602060008051602061537c8339815191525460a01c604051908152f35b503461042757602036600319011261042757600435611dfb8161066c565b611e3d60005491611e2160ff8460081c161580948195611b5e578115611b3e5750612400565b82611e34600160ff196000541617600055565b611e8257612471565b611e4357005b611e5361ff001960005416600055565b604051600181527f7f26b83ff96e1f2b6a682f133852f6798a09c465da95921460cefb384740249890602090a1005b611e9661010061ff00196000541617600055565b612471565b50346104275760403660031901126104275767ffffffffffffffff60043581811161042757611ece903690600401611394565b9060243590811161042757611ee7903690600401610a68565b905a91611ef4818361330a565b611efc6140bc565b604082015151611f74575b602092838301519160005b835163ffffffff821690811015611f6957906116d982611f3989611690611f64968a612e27565b611f49610b186116a8838a612e27565b9060606116d08b611f5a848c612e27565b510151928a612e27565b611f12565b61002183878661363f565b611f7f825151613f31565b611f07565b50346104275760003660031901126104275760206040517311632f9766ee9d9317f95562a6bd529652ead78f8152f35b15611fbb57565b608460405162461bcd60e51b815260206004820152602c60248201527f46756e6374696f6e206d7573742062652063616c6c6564207468726f7567682060448201527f64656c656761746563616c6c00000000000000000000000000000000000000006064820152fd5b1561202c57565b608460405162461bcd60e51b815260206004820152602c60248201527f46756e6374696f6e206d7573742062652063616c6c6564207468726f7567682060448201527f6163746976652070726f787900000000000000000000000000000000000000006064820152fd5b90816020910312610427575190565b506040513d6000823e3d90fd5b156120b957565b608460405162461bcd60e51b815260206004820152602960248201527f45524331393637557067726164653a20756e737570706f727465642070726f7860448201527f6961626c655555494400000000000000000000000000000000000000000000006064820152fd5b803b15612166576001600160a01b037f360894a13ba1a3210667c828492db98dca3e2076cc3735a920a3ca505d382bbc91166001600160a01b0319825416179055565b608460405162461bcd60e51b815260206004820152602d60248201527f455243313936373a206e657720696d706c656d656e746174696f6e206973206e60448201527f6f74206120636f6e7472616374000000000000000000000000000000000000006064820152fd5b906121da82612123565b6001600160a01b0382167fbc7cd75a20ee27fd9adebab32041f755214dbc6bffa90cc0225b39da2e5c2d3b600080a280511580159061229a575b61221c575050565b61229791600080604051936122308561029c565b602785527f416464726573733a206c6f772d6c6576656c2064656c65676174652063616c6c60208601527f206661696c6564000000000000000000000000000000000000000000000000006040860152602081519101845af46122916122f5565b91612325565b50565b506000612214565b906122ac82612123565b6001600160a01b0382167fbc7cd75a20ee27fd9adebab32041f755214dbc6bffa90cc0225b39da2e5c2d3b600080a28051158015906122ed5761221c575050565b506001612214565b3d15612320573d906123068261037f565b916123146040519384610320565b82523d6000602084013e565b606090565b919290156123865750815115612339575090565b3b156123425790565b606460405162461bcd60e51b815260206004820152601d60248201527f416464726573733a2063616c6c20746f206e6f6e2d636f6e74726163740000006044820152fd5b8251909150156123995750805190602001fd5b6107f29060405191829162461bcd60e51b83526004830161059e565b156123bc57565b606460405162461bcd60e51b815260206004820152601b60248201527f4f6e6c792077616c6c6574207369676e65727320616c6c6f77656400000000006044820152fd5b1561240757565b608460405162461bcd60e51b815260206004820152602e60248201527f496e697469616c697a61626c653a20636f6e747261637420697320616c72656160448201527f647920696e697469616c697a65640000000000000000000000000000000000006064820152fd5b61249060ff60005460081c16612486816124f4565b476124c6576124f4565b6001600160a01b0319906001600160a01b0360008051602061537c83398151915291168282541617905533906065541617606555565b476040519081527f3317af6e3247959c45cb6051f9153437a9072683e21eda1f9b52c5bcec0e89c260203392a25b156124fb57565b608460405162461bcd60e51b815260206004820152602b60248201527f496e697469616c697a61626c653a20636f6e7472616374206973206e6f74206960448201527f6e697469616c697a696e670000000000000000000000000000000000000000006064820152fd5b61256d6105f7565b906125766103aa565b906040519160208301937f8b73c3c69bb8fe3d512ecc4cf759cc79239f7b179b0ffacaa9a75d522b39400f85526040840152606083015260808201523060a082015260a081526125c581610304565b51902090565b50634e487b7160e01b600052601160045260246000fd5b60ff6001911660ff81146125f4570190565b6125fc6125cb565b0190565b9060418202918083046041149015171561261657565b6103706125cb565b9060058202918083046005149015171561261657565b90633b9aca009182810292818404149015171561261657565b906103e59182810292818404149015171561261657565b906103e89182810292818404149015171561261657565b8181029291811591840414171561261657565b909161269a8251615230565b604192838351106127a957600091825b60ff808516600181101561279f57906126db8593928890604102016020810151906060604082015191015160001a92565b949092909116806127835750506001600160a01b03169187811061275657612705908786856128fd565b6001600160a01b0380911690821611156127295761272390936125e2565b926126aa565b60405162461bcd60e51b815260206004820152600560248201526423a998191b60d91b6044820152606490fd5b60405162461bcd60e51b8152602060048201526005602482015264475330323160d81b6044820152606490fd5b9161279093949192612c77565b9061279a82612aec565b612705565b5050509350505050565b60405162461bcd60e51b8152602060048201526005602482015264047533032360dc1b6044820152606490fd5b90916127e28251615230565b604192838351106127a957600091825b60ff808516600181101561279f57906128238593928890604102016020810151906060604082015191015160001a92565b949092909116806128715750506001600160a01b0316918781106127565761284d908786856128fd565b6001600160a01b0380911690821611156127295761286b90936125e2565b926127f2565b9161287e93949192612c77565b9061288882612aec565b61284d565b9081602091031261042757516001600160e01b0319811681036104275790565b6040906105af939281528160208201520190610579565b604051906128d1826102cc565b600482527f6f6f7073000000000000000000000000000000000000000000000000000000006020830152565b90929161290983612a7a565b815110612a355761292a60208483010193612925855191612a7a565b612aa6565b9051106129f05760206001600160e01b03199261298792630b135d3f60e11b956001600160a01b036040518096819582947f429c9758000000000000000000000000000000000000000000000000000000008452600484016128ad565b0392165afa9081156129e3575b6000916129b5575b5016036129a557565b6103706129b06128c4565b61528b565b6129d6915060203d81116129dc575b6129ce8183610320565b81019061288d565b3861299c565b503d6129c4565b6129eb6120a5565b612994565b60405162461bcd60e51b815260206004820152600560248201527f47533032330000000000000000000000000000000000000000000000000000006044820152606490fd5b60405162461bcd60e51b815260206004820152600560248201527f47533032320000000000000000000000000000000000000000000000000000006044820152606490fd5b906020820180921161261657565b906188b891820180921161261657565b906001820180921161261657565b9190820180921161261657565b9081602091031261042757516105af8161066c565b90816060910312610427578051612ade8161066c565b916040602083015192015190565b6001600160a01b038091168015612c0557612b1f610b1860008051602061537c833981519152546001600160a01b031690565b8114159182612b90575b5050612b3157565b6040517f0e753c0b00000000000000000000000000000000000000000000000000000000815260206004820181905260248201527f5369676e6572206973206e6f7420536d6172742057616c6c6574204f776e65726044820152606490fd5b90915060046020612bac610b186065546001600160a01b031690565b60405192838092632483e71560e01b82525afa908115612bf8575b600091612bda575b501614153880612b29565b612bf2915060203d8111610cbe57610caf8183610320565b38612bcf565b612c006120a5565b612bc7565b6040517f2a34f7fe00000000000000000000000000000000000000000000000000000000815260206004820152601160248201527f496e76616c6964205369676e61747572650000000000000000000000000000006044820152606490fd5b60ff6003199116019060ff821161261657565b602093600093601e60ff841611612ccd576040805192835260ff909316602083015291810192909252606082015280608081015b838052039060015afa15612cc0575b60005190565b612cc86120a5565b612cba565b612d29612cab92604051612d2081612d128b82019485603c917f19457468657265756d205369676e6564204d6573736167653a0a3332000000008252601c8201520190565b03601f198101835282610320565b51902093612c64565b93604051948594859094939260ff6060936080840197845216602083015260408201520152565b6040513481527f3317af6e3247959c45cb6051f9153437a9072683e21eda1f9b52c5bcec0e89c260203392a2565b612d8f60ff60005460081c166124f4565b47612d9657565b476040519081527f3317af6e3247959c45cb6051f9153437a9072683e21eda1f9b52c5bcec0e89c260203392a2565b60019063ffffffff8091169081146125f4570190565b50634e487b7160e01b600052603260045260246000fd5b604090805160011015612e03570190565b6125fc612ddb565b608090606051811015612e1f5760051b0190565b611199612ddb565b6020918151811015612e3c575b60051b010190565b612e44612ddb565b612e34565b91906040838203126104275782519260208101519067ffffffffffffffff8211610427570181601f82011215610427578051612e848161037f565b92612e926040519485610320565b81845260208284010111610427576105af9160208085019101610556565b90601f8111612ebe57505050565b600091825260208220906020601f850160051c83019410612efa575b601f0160051c01915b828110612eef57505050565b818155600101612ee3565b9092508290612eda565b919091825167ffffffffffffffff8111612fd4575b612f2d81612f278454610478565b84612eb0565b602080601f8311600114612f69575081929394600092612f5e575b50508160011b916000199060031b1c1916179055565b015190503880612f48565b90601f19831695612f7f85600052602060002090565b926000905b888210612fbc57505083600195969710612fa3575b505050811b019055565b015160001960f88460031b161c19169055388080612f99565b80600185968294968601518155019501930190612f84565b612fdc61025c565b612f19565b815181546001600160a01b0319166001600160a01b0391909116178155602091828101519260019384840155600283019060408301519485519167ffffffffffffffff831161312a575b61303f836130398654610478565b86612eb0565b80601f84116001146130ad575092828060609460039794613085976103709b6000946130a2575b50501b9160001990881b1c19161790555b01516001600160a01b031690565b9101906001600160a01b03166001600160a01b0319825416179055565b015192503880613066565b9193949596601f1984166130c687600052602060002090565b936000905b8282106131135750509361037098979360039793613085979383606098106130fb575b505050811b019055613077565b0151600019838a1b60f8161c191690553880806130ee565b8088869782949787015181550196019401906130cb565b61313261025c565b61302b565b9061315e6060936001600160a01b0392979695978452608060208501526080840190610579565b951660408201520152565b919061317e6020825183010160208301612e49565b9361319e8161319861318f85612565565b61152683614e31565b93614111565b6131a88551615230565b60c394858151106127a957600093845b60ff808716600381101561325357906131e98793928690604102016020810151906060604082015191015160001a92565b949092909116806132375750506001600160a01b03169189811061275657613213908588856128fd565b6001600160a01b0380911690821611156127295761323190956125e2565b946131b8565b9161324493949192612c77565b9061324e82612aec565b613213565b5050509291949550507ffcd9cc555d2f82c5f75a967488b70edab6da722c5eb2587b5fb65a8dc4f21f4b925061330560008051602061537c833981519152916132f260608454946132e26132a5610363565b6001600160a01b038881168252976132dd9060208301889052604083018b9052308684015260a01c6000526066602052604060002090565b612fe1565b549701516001600160a01b031690565b60405194859488169760a01c9285613137565b0390a2565b907ffcd9cc555d2f82c5f75a967488b70edab6da722c5eb2587b5fb65a8dc4f21f4b90826133766133446020845185010160208501612e49565b61337161335c61335384612565565b61152687614e31565b94859361336c60808301516141a1565b614111565b6127d6565b6133808451613d57565b61330560008051602061537c833981519152916132f260608454946132e26132a5610363565b5190811515820361042757565b90816020910312610427576105af906133a6565b9190820391821161261657565b604051906133e18261029c565b602d82527f743136302c6164647265737329000000000000000000000000000000000000006040837f7472616e7366657246726f6d28616464726573732c616464726573732c75696e60208201520152565b60405190613440826102cc565b601c82527f7665726966794272696467655265712862797465732c627974657329000000006020830152565b90606081019180516060835280518094526080808401946020809301916000905b8282106134b55750505050808201516001600160a01b03169083015260409081015191015290565b909192968482826134fd6001948c516060906001600160a01b0380825116845260208201511660208401528165ffffffffffff91826040820151166040860152015116910152565b0198019392019061348d565b90815180825260208092019182818360051b85019501936000915b8483106135345750505050505090565b909192939495848061357d83856001950387528a516001600160a01b03815116825283810151848301526040808201519083015260608091015191608080928201520190610579565b9801930193019194939290613524565b60208152815160e06135e16135b06101009384602087015261012086019061346c565b6135cc602087015191601f199283888303016040890152613509565b90604087015190868303016060870152613509565b60608501516001600160a01b0316608085015293608081015160a085015260a081015160c085015260c081015182850152015191015290565b90916136316105af93604084526040840190610579565b916020818403910152610579565b919061373d6136526116a8835151612df2565b92613668610b186065546001600160a01b031690565b936040948551917f3315389a0000000000000000000000000000000000000000000000000000000083526020956004938781806136b7868983019190916001600160a01b036020820193169052565b0381875afa8015613c11575b613be4575b506136ec6136e76136e26136db8c612a88565b5a906133c7565b61261e565b612634565b9284896716345785d8a0000095630e9ac0ce4614613a62575b5090506137c291506137bc89613797868861371e6133d4565b9560008051602061537c8339815191529d8e546001600160a01b031690565b9061376061375a8251998881519101206001600160e01b03191690565b986102b8565b51948501969096526001600160a01b03958616602485015233604485015285166064840152909316608482015291829060a4820190565b03946137ab601f1996878101855284610320565b6001600160a01b038097169061426e565b30614476565b506137cd8151613c1e565b87810151516137f2575b50505050505050506137ed610370915a906133c7565b615230565b90868493926138039a98999a613433565b8b51806138128486830161358d565b0385810182526138229082610320565b8c519184815191012061383c906001600160e01b03191690565b91613846906102b8565b8c5198899285840152602483019161385d9261361a565b03838101885261386d9088610320565b60655482906001600160a01b03166001600160a01b03168c5197888092634c9484df60e01b82525afa6103709b6137ed9b6139f99a6139f4996138eb996139c5996139b99761393597938415613a55575b600094613a32575b508061152661152060e06138db940151612565565b9b8c94546001600160a01b031690565b918651978895869485937ff227a2d80000000000000000000000000000000000000000000000000000000085528401602090939291936001600160a01b0360408201951681520152565b0392165afa918215613a25575b600092613a06575b5061399c81516139888161397c868c308b85016040919493926001600160a01b03606083019616825260208201520152565b03888101835282610320565b61165989600052606a602052604060002090565b513093810193845260208401969096526040830152849160600190565b03908101835282610320565b60008052606b6020527fc8cc8bda7ad4886bea3ebbdafa02e79d37c39bf4011696b26a31a0802fd9458b612f04565b6144e8565b50913880808080806137d7565b613a1e919250843d8611610832576108238183610320565b903861394a565b613a2d6120a5565b613942565b6138db919450613a4e90873d8911610cbe57610caf8183610320565b93906138c6565b613a5d6120a5565b6138be565b613b429496509085610b189493928c8351957f4aa4a4fc00000000000000000000000000000000000000000000000000000000875281878781845afa968715613bd7575b600097613bb8575b508451947f396abe0600000000000000000000000000000000000000000000000000000000865282868881855afa958615613bab575b600096613b8c575b5051958680927fbcd292c70000000000000000000000000000000000000000000000000000000082525afa938415613b7f575b8d600095613b4c575b50506fffffffffffffffffffffffffffffffff1693614687565b9138848982613705565b6fffffffffffffffffffffffffffffffff9295509081613b7792903d10610cbe57610caf8183610320565b93908d613b28565b613b876120a5565b613b1f565b613ba4919650833d8511610cbe57610caf8183610320565b9438613aec565b613bb36120a5565b613ae4565b613bd0919750823d8411610cbe57610caf8183610320565b9538613aae565b613bdf6120a5565b613aa6565b613c0390883d8a11613c0a575b613bfb8183610320565b8101906133b3565b50386136c8565b503d613bf1565b613c196120a5565b6136c3565b9060005b60605160ff821690811015613d515790613d47613d1f85613d08613cfa613d4c966001600160a01b03613c93613cf48260008051602061537c833981519152613ccb6020613cad613c89858554166001600160a01b0316600052606c602052604060002090565b85613c938b612e0b565b5151166001600160a01b0316600052602052604060002090565b9a0199838b51166001600160a01b0316600052602052604060002090565b6001600160a01b0319815416905554166001600160a01b0316600052606c602052604060002090565b92612e0b565b91516001600160a01b031690565b6001600160a01b0316600052602052604060002090565b7fffffffffffff000000000000ffffffffffffffffffffffffffffffffffffffff8154169055565b6125e2565b613c22565b50509050565b602080820191613d6e83516001600160a01b031690565b8151519360005b858110613d8457505050505050565b613d98610b1883516001600160a01b031690565b613da5575b600101613d75565b80845190613db291612e27565b516060015165ffffffffffff1681855190613dcc91612e27565b51516001600160a01b0316908683875190613de691612e27565b5101516001600160a01b03166040908185895190613e0391612e27565b51015165ffffffffffff169260008051602061537c83398151915289828685878d8b8754613e37906001600160a01b031690565b613e54906001600160a01b0316600052606c602052604060002090565b90613e7191906001600160a01b0316600052602052604060002090565b90613e8e91906001600160a01b0316600052602052604060002090565b9465ffffffffffff808754613ea39060d01c90565b1690861690613eb19161421a565b0151613ebc90614221565b613ec59361461c565b5492516001600160a01b03928316815265ffffffffffff948516602082015293166040840152868116938116929116907fc6a377bfc4eb120024a8ac08eef205be16b817020812c73223e81d1bdb9708ec90606090a4613d9d565b906002811015612e1f5760051b0190565b613f39610372565b90613f69613f5c60008051602061537c833981519152546001600160a01b031690565b6001600160a01b03168352565b613f7e610b186065546001600160a01b031690565b92604090613fbd82518096632483e71560e01b82528160046020998a935afa9081156140af575b600091614092575b506001600160a01b031685870152565b60005b835160ff82169081101561408957600081612d1261404b613fff6116a8613ff8613feb87988e613f20565b516001600160a01b031690565b948b612e27565b88517fd4fac45d000000000000000000000000000000000000000000000000000000008d82019081526001600160a01b0395861660248301529490911660448201529182906064820190565b5190827311632f9766ee9d9317f95562a6bd529652ead78f5af161406d6122f5565b9015614082575061407d906125e2565b613fc0565b8681519101fd5b50509350505050565b6140a99150873d8911610cbe57610caf8183610320565b38613fad565b6140b76120a5565b613fa5565b60008051602061537c83398151915280546001600160a01b036001600160a01b031960018360a01c6bffffffffffffffffffffffff8114614104575b0160a01b169116179055565b61410c6125cb565b6140f8565b9060e001510361411d57565b60846040517f78b9146600000000000000000000000000000000000000000000000000000000815260206004820152602760248201527f73696720636861696e20646f6573206e6f7420657175616c2070726f7669646560448201527f642076616c7565000000000000000000000000000000000000000000000000006064820152fd5b60008051602061537c8339815191525460a01c036141bb57565b6040517f73fe9fad00000000000000000000000000000000000000000000000000000000815260206004820152601660248201527f696e76616c6964206e6f6e63652070726f7669646564000000000000000000006044820152606490fd5b036141bb57565b42101561422a57565b6064604051622bd21560e71b815260206004820152601c60248201527f7065726d6974207369676e6174757265206861732065787069726564000000006044820152fd5b60206001600160a01b039160248360008051602061537c833981519152541660405194859384927f70a082310000000000000000000000000000000000000000000000000000000084526004840152165afa90811561437a575b60009161435c575b50106142d857565b60846040517fc2ce16ea00000000000000000000000000000000000000000000000000000000815260206004820152602160248201527f496e75736566666963656e742062616c616e6365206f6620666565206173736560448201527f74000000000000000000000000000000000000000000000000000000000000006064820152fd5b614374915060203d8111610832576108238183610320565b386142d0565b6143826120a5565b6142c8565b90816060910312610427578051916040602083015192015190565b156143a957565b608460405162461bcd60e51b815260206004820152602560248201527f73726320636861696e206f6e636861696e20766572696669636174696f6e206660448201527f61696c65640000000000000000000000000000000000000000000000000000006064820152fd5b9190811015614436575b60051b81013590607e1981360301821215610427570190565b61443e612ddb565b61441d565b903590601e1981360301821215610427570180359067ffffffffffffffff82116104275760200191813603831361042757565b6001600160a01b031660008083516020850182855af1907f202ca0633e9bf52b1d9ffc5784badd7db89fdd8a05bea524c99853429017f7ae6144d56144b96122f5565b9460405191829160008352604060208401526040830190610579565b0390a2156144e05790565b602081519101fd5b80516000807311632f9766ee9d9317f95562a6bd529652ead78f926020850182855af1907f202ca0633e9bf52b1d9ffc5784badd7db89fdd8a05bea524c99853429017f7ae6144d56144b96122f5565b6001600160a01b0390929192167f202ca0633e9bf52b1d9ffc5784badd7db89fdd8a05bea524c99853429017f7ae60008084516020860187865af19261457c6122f5565b946144d56040519283928352604060208401526040830190610579565b47106145a157565b6040517fab7bcc4800000000000000000000000000000000000000000000000000000000815260206004820152602c60248201527f536d61727457616c6c65743a20696e73756666696369656e742062617365206160448201526b737365742062616c616e636560a01b6064820152608490fd5b1561042757565b929091600165ffffffffffff60a01b6001600160a01b037fffffffffffff00000000000000000000000000000000000000000000000000009365ffffffffffff908181161560001461467f57504216955b169460a01b16920160d01b1617179055565b90509561466d565b919493929094600095600093617a6946146148d657906146a89392916148f3565b919060028110156148c257600181036146c85750506105af929350614b49565b919091156146d557505050565b6105af939450906001600160a01b0361481393921690604051927f0902f1ac000000000000000000000000000000000000000000000000000000008452606084600481865afa80156148b5575b82938395849261486b575b509161480d9493916004602061480695604051928380927f5909c0d50000000000000000000000000000000000000000000000000000000082525afa93841561485e575b93614818575b50614801916147fa6147a063ffffffff6fffffffffffffffffffffffffffffffff9416426133c7565b946147f46147ad8b614d9c565b966147ee6147cd6dffffffffffffffffffffffffffff809c16809a614df7565b7bffffffffffffffffffffffffffffffffffffffffffffffffffffffff1690565b9061267b565b90612aa6565b501661264d565b61267b565b9216612664565b90614b24565b612a98565b6fffffffffffffffffffffffffffffffff919350916147fa6147a063ffffffff6148526148019660203d8111610832576108238183610320565b96945050505091614777565b6148666120a5565b614771565b6004965061480d955060209492509061489e614806949260603d81116148ae575b6148968183610320565b810190614ae0565b909850909650929450909261472d565b503d61488c565b6148bd6120a5565b614722565b602482634e487b7160e01b81526021600452fd5b50505050506fffffffffffffffffffffffffffffffff9192501690565b6040517f1698ee820000000000000000000000000000000000000000000000000000000081526001600160a01b038083166004830152831660248201526109c4604482015294936020939092918487806064810103816001600160a01b038098165afa968715614aa7575b600097614a7e575b506040517fe6a439050000000000000000000000000000000000000000000000000000000081526001600160a01b0391821660048201529216602483015283908290818581604481015b0392165afa928315614a71575b600093614a52575b5050838116156149d757505060019190565b9092508216156149e75760009190565b60405162461bcd60e51b815260206004820152603060248201527f4e6f207061697220666f756e642c20556e61626c6520746f20657374696d617460448201527f65206665657320666f72207472616465000000000000000000000000000000006064820152608490fd5b614a69929350803d10610cbe57610caf8183610320565b9038806149c5565b614a796120a5565b6149bd565b6149b09391975091614a9d8693843d8611610cbe57610caf8183610320565b9791935091614966565b614aaf6120a5565b61495e565b51906dffffffffffffffffffffffffffff8216820361042757565b519063ffffffff8216820361042757565b9081606091031261042757614af481614ab4565b916105af6040614b0660208501614ab4565b9301614acf565b50634e487b7160e01b600052601260045260246000fd5b8115614b2e570490565b614b36614b0d565b0490565b519061ffff8216820361042757565b6040517f3850c7bd00000000000000000000000000000000000000000000000000000000815260e0816004816001600160a01b038096165afa908115614c63575b600091614bd5575b5016906fffffffffffffffffffffffffffffffff808311614bc157614bba836105af9461267b565b9116614d56565b614bce836105af94614c70565b9116614cba565b60e0813d8211614c5b575b81614bed60e09383610320565b81010312614c5757805191614c018361066c565b60208201518060020b03611b6c575060c081614c226040614c509401614b3a565b50614c2f60608201614b3a565b50614c3c60808201614b3a565b50614c4960a08201614acf565b50016133a6565b5038614b92565b5080fd5b3d9150614be0565b614c6b6120a5565b614b8a565b6000198282099082810292838084109303928084039314614cb157680100000000000000009183831115610427570990828211900360c01b910360401c1790565b50505060401c90565b9070010000000000000000000000000000000090600019838309928060801b92838086109503948086039514614d4757908291614cf8868411614615565b0981806000031680920460028082600302188083028203028083028203028083028203028083028203028083028203028092029003029360018380600003040190848311900302920304170290565b50509150614b36821515614615565b90780100000000000000000000000000000000000000000000000090600019838309928060c01b92838086109503948086039514614d4757908291614cf8868411614615565b7bffffffffffffffffffffffffffff00000000000000000000000000006dffffffffffffffffffffffffffff82169160701b16908082046e0100000000000000000000000000001490151715614def5790565b6105af6125cb565b907bffffffffffffffffffffffffffffffffffffffffffffffffffffffff809116918215614e2457160490565b614e2c614b0d565b160490565b60c081015190805192614e45845151614fe8565b9160005b85518051821015614e805790614e6b614e6582614e7b94612e27565b51615152565b614e758287612e27565b5261501a565b614e49565b505092916125c591946040519182614e9c60208201809361502a565b0392614eb0601f1994858101835282610320565b51902090614f316040614ecd60208401516001600160a01b031690565b92015191614f256040519384926020840196876001600160a01b0360609295949360808301967fe06ddd2657f493bbdb0819686ad5459ec926ea69f0752f8e57e3a53158905fce845260208401521660408201520152565b03848101835282610320565b519020926139b9614f456020870151615057565b95614f536040820151615057565b92614f6860608301516001600160a01b031690565b9660e0608084015193015192604051988996602088019b46948d94919361010096936001600160a01b03929a99989561012088019b7f0672cd1f61dd2d22d5167ca5de2a5be445722cd9f25fe976650ca4a856417101895260208901526040880152606087015216608085015260a084015260c083015260e08201520152565b90614ff282611177565b614fff6040519182610320565b8281528092615010601f1991611177565b0190602036910137565b60019060001981146125f4570190565b805160208092019160005b828110615043575050505090565b835185529381019392810192600101615035565b906150628251614fe8565b60005b83518110156151395761513490604061508a816150828489612e27565b5101516151cb565b6150976116a88388612e27565b906151276020612d12816150ab878c612e27565b510151938a60606150ca89846150c18286612e27565b51015193612e27565b510151848151910120915195869485019788909493926080926001600160a01b0360a08401977f81c795a7225e70197af9bd380e6f873a1b0e517940669963a9675b6f437436e08552166020840152604083015260608201520152565b519020614e758285612e27565b615065565b509091506040516125c581612d1260208201809561502a565b6040516151be60208201927f1abfd930c022142841a784ac6f15bfb82392b3b97047cb73f2b3e8a6a2419f5f845260408301906060906001600160a01b0380825116845260208201511660208401528165ffffffffffff91826040820151166040860152015116910152565b60a081526125c581610304565b156151d257565b60646040517ffb5c375500000000000000000000000000000000000000000000000000000000815260206004820152601d60248201527f45434453413a20557365724f707320696e76616c696420646f6d61696e0000006044820152fd5b61037090604051907ff82c50f10000000000000000000000000000000000000000000000000000000060208301526024820152602481526152708161029c565b600080916020815191016a636f6e736f6c652e6c6f675afa50565b612d12615270610370926040519283917f41304fac000000000000000000000000000000000000000000000000000000006020840152602060248401526044830190610579565b9160008093602095606494604051947f23b872dd0000000000000000000000000000000000000000000000000000000086526001600160a01b03809216600487015216602485015260448401525af13d15601f3d116001600051141617161561533757565b606460405162461bcd60e51b815260206004820152601460248201527f5452414e534645525f46524f4d5f4641494c45440000000000000000000000006044820152fdfe3c344650e40c6608a176dc19a4b7c111d92b7e4d03081787ac55837ca120d11ba2646970667358221220f95e3731aa7e4d6003b42575ffff54a9c41426572f482dbc72f22b290adc633464736f6c63430008110033",
  "devdoc": {
    "kind": "dev",
    "methods": {},
    "version": 1
  },
  "userdoc": {
    "kind": "user",
    "methods": {},
    "version": 1
  },
  "storageLayout": {
    "storage": [
      {
        "astId": 6286,
        "contract": "contracts/ECDSAWalletFactory.sol:ECDSAWalletFactory",
        "label": "factory",
        "offset": 0,
        "slot": "0",
        "type": "t_contract(SmartWalletFactory)8017"
      },
      {
        "astId": 6289,
        "contract": "contracts/ECDSAWalletFactory.sol:ECDSAWalletFactory",
        "label": "wallet",
        "offset": 0,
        "slot": "1",
        "type": "t_contract(ECDSAWallet)6272"
      }
    ],
    "types": {
      "t_contract(ECDSAWallet)6272": {
        "encoding": "inplace",
        "label": "contract ECDSAWallet",
        "numberOfBytes": "20"
      },
      "t_contract(SmartWalletFactory)8017": {
        "encoding": "inplace",
        "label": "contract SmartWalletFactory",
        "numberOfBytes": "20"
      }
    }
  }
}