{
  "address": "0x39f515027A4bbf258F93E485534559A3689800D4",
  "abi": [
    {
      "inputs": [
        {
          "internalType": "contract SmartWalletFactory",
          "name": "_factory",
          "type": "address"
        }
      ],
      "stateMutability": "nonpayable",
      "type": "constructor"
    },
    {
      "inputs": [
        {
          "internalType": "address",
          "name": "_owner",
          "type": "address"
        }
      ],
      "name": "createWallet",
      "outputs": [
        {
          "internalType": "contract IWallet",
          "name": "",
          "type": "address"
        }
      ],
      "stateMutability": "nonpayable",
      "type": "function"
    },
    {
      "inputs": [
        {
          "internalType": "address",
          "name": "_owner",
          "type": "address"
        },
        {
          "internalType": "uint256",
          "name": "_nonce",
          "type": "uint256"
        }
      ],
      "name": "walletAddress",
      "outputs": [
        {
          "internalType": "address",
          "name": "",
          "type": "address"
        }
      ],
      "stateMutability": "view",
      "type": "function"
    }
  ],
  "transactionHash": "0xf6e3b62fc994c5fa0a4f25d4e9683a800e84e21fe31906bb914909d4fc67f1ff",
  "args": [
    "0xF14439FC31369936B83C3CDa0370660A4232f660"
  ],
  "numDeployments": 1,
  "solcInputHash": "2c49070ee86209dbfbea884d3d6506ff",
  "bytecode": "0x60803461014957601f6112c238819003918201601f19168301926000926001600160401b03928386118387101761013557816020928492604098895283398101031261013157516001600160a01b03808216929183900361012d578451610e188082019082821085831117610119579082916104aa8339039085f0801561010f57169060018060a01b03199180836001541617600155803b1561010b57908480926024885180958193634fa210bd60e01b83528160048401525af18015610101576100da575b50508254161790555161035b908161014f8239f35b81949294116100ed5784529138806100c5565b634e487b7160e01b82526041600452602482fd5b86513d87823e3d90fd5b8480fd5b85513d86823e3d90fd5b634e487b7160e01b87526041600452602487fd5b8380fd5b8280fd5b634e487b7160e01b85526041600452602485fd5b600080fdfe6080604090808252600436101561001557600080fd5b600090813560e01c9081631238ac7c14610148575063b054a9e81461003957600080fd5b3461012e576020918260031936011261013157906100de91610059610250565b918473ffffffffffffffffffffffffffffffffffffffff9384835416856001541686865193634fa210bd60e01b868601521660248401526024835261009d83610278565b8486518099819582947feebc8e19000000000000000000000000000000000000000000000000000000008452600484015289602484015260448301906102e5565b03925af193841561013c5781946100f9575b50505191168152f35b909193508481813d8311610135575b61011281836102c3565b81010312610131575190828216820361012e57509138806100f0565b80fd5b5080fd5b503d610108565b509051903d90823e3d90fd5b8391503461024c578160031936011261024c576101ee91610167610250565b9373ffffffffffffffffffffffffffffffffffffffff9485938483541685600154166020988994634fa210bd60e01b86860152166024840152602483526101ad83610278565b85518098819482937fd1e64ad700000000000000000000000000000000000000000000000000000000845260048401526060602484015260648301906102e5565b602435604483015203915afa93841561013c5781946102105750505191168152f35b909193508481813d8311610245575b61022981836102c3565b81010312610131575190828216820361012e57509184806100f0565b503d61021f565b8280fd5b6004359073ffffffffffffffffffffffffffffffffffffffff8216820361027357565b600080fd5b6060810190811067ffffffffffffffff82111761029457604052565b7f4e487b7100000000000000000000000000000000000000000000000000000000600052604160045260246000fd5b90601f8019910116810190811067ffffffffffffffff82111761029457604052565b919082519283825260005b848110610311575050826000602080949584010152601f8019910116010190565b6020818301810151848301820152016102f056fea264697066735822122099e9f4347a1c625e65fa080f4b56a6a9745c4fd9eb55e7f0c8a92c1ef2c0582d64736f6c6343000811003360a080604052346100315730608052610de19081610037823960805181818161024b015281816104dd01526107df0152f35b600080fdfe604060808152600480361015610048575b50361561001c57600080fd5b513481527f3317af6e3247959c45cb6051f9153437a9072683e21eda1f9b52c5bcec0e89c260203392a2005b600090813560e01c9081633659cfe6146107b65781634f1ef286146104615781634fa210bd1461030557816352d1902d1461022d575080638901e25b146101295780638da5cb5b146100e25763affed0e0036100105790346100de57816003193601126100de576020907f0ac41b77b748f760fa04c9835cf3bc6486b5ac3e32c22a9524f31b74ca841fb25460a01c9051908152f35b5080fd5b5090346100de57816003193601126100de576020906001600160a01b037f0ac41b77b748f760fa04c9835cf3bc6486b5ac3e32c22a9524f31b74ca841fb254169051908152f35b5090346100de57816003193601126100de57815460ff8160081c161590818092610220575b8015610209575b61015e90610cc9565b60ff1981166001178455816101f8575b5082549061018160ff8360081c16610d3a565b476101c7575b61018f578280f35b61ff001916825551600181527f7f26b83ff96e1f2b6a682f133852f6798a09c465da95921460cefb384740249890602090a138808280f35b4783519081527f3317af6e3247959c45cb6051f9153437a9072683e21eda1f9b52c5bcec0e89c260203392a2610187565b61ffff19166101011783553861016e565b50303b158015610155575060ff8116600114610155565b50600160ff82161061014e565b91905034610302578060031936011261030257506001600160a01b037f000000000000000000000000000000000000000000000000000000000000000016300361029a57602082517f360894a13ba1a3210667c828492db98dca3e2076cc3735a920a3ca505d382bbc8152f35b6020608492519162461bcd60e51b8352820152603860248201527f555550535570677261646561626c653a206d757374206e6f742062652063616c60448201527f6c6564207468726f7567682064656c656761746563616c6c00000000000000006064820152fd5b80fd5b8284346100de5760203660031901126100de576103206109cf565b825460ff8160081c161590818092610454575b801561043d575b61034390610cc9565b60ff19811660011785558161042c575b5083549161037460ff8460081c1661036a81610d3a565b476103fb57610d3a565b6001600160a01b037f0ac41b77b748f760fa04c9835cf3bc6486b5ac3e32c22a9524f31b74ca841fb2911673ffffffffffffffffffffffffffffffffffffffff198254161790556103c3578280f35b61ff001916825551600181527f7f26b83ff96e1f2b6a682f133852f6798a09c465da95921460cefb384740249890602090a181808280f35b4786519081527f3317af6e3247959c45cb6051f9153437a9072683e21eda1f9b52c5bcec0e89c260203392a2610d3a565b61ffff191661010117845584610353565b50303b15801561033a575060ff811660011461033a565b50600160ff821610610333565b905082806003193601126107ae576104776109cf565b906024359067ffffffffffffffff82116107b257366023830112156107b257818401356104a381610a3e565b6104af83519182610a1c565b818152866020948583019336602482840101116107ae578060248893018637830101526001600160a01b03807f0000000000000000000000000000000000000000000000000000000000000000169061050a82301415610a5a565b6105397f360894a13ba1a3210667c828492db98dca3e2076cc3735a920a3ca505d382bbc928284541614610acb565b3033036107aa577f4910fdfa16fed3260ed0e7147f7cc6da11a60208b5b9406d12a635614ffd91435460ff161561057d5750505050505061057a9150610b3c565b80f35b869293949596169085516352d1902d60e01b815287818a81865afa8a9181610777575b5061060d576084898989519162461bcd60e51b8352820152602e60248201527f45524331393637557067726164653a206e657720696d706c656d656e7461746960448201527f6f6e206973206e6f7420555550530000000000000000000000000000000000006064820152fd5b97919293969594970361070f575061062482610b3c565b7fbc7cd75a20ee27fd9adebab32041f755214dbc6bffa90cc0225b39da2e5c2d3b8780a285845115801590610707575b610662575b50505050505080f35b806106f196845196610673886109ea565b602788527f416464726573733a206c6f772d6c6576656c2064656c65676174652063616c6c878901527f206661696c656400000000000000000000000000000000000000000000000000868901525190845af4913d156106fd573d6106e36106da82610a3e565b92519283610a1c565b81528681943d92013e610bf6565b50818080808085610659565b5060609250610bf6565b506001610654565b6084908585519162461bcd60e51b8352820152602960248201527f45524331393637557067726164653a20756e737570706f727465642070726f7860448201527f6961626c655555494400000000000000000000000000000000000000000000006064820152fd5b9091508881813d83116107a3575b61078f8183610a1c565b8101031261079f5751908b6105a0565b8a80fd5b503d610785565b8880fd5b8280fd5b8480fd5b905082346107ae576020806003193601126109cb576107d36109cf565b916001600160a01b03807f00000000000000000000000000000000000000000000000000000000000000001661080b81301415610a5a565b61083a7f360894a13ba1a3210667c828492db98dca3e2076cc3735a920a3ca505d382bbc918383541614610acb565b3033036109c7578251908482019282841067ffffffffffffffff8511176109b4578385528883527f4910fdfa16fed3260ed0e7147f7cc6da11a60208b5b9406d12a635614ffd91435460ff161561089b5750505050505061057a9150610b3c565b869293949596169085516352d1902d60e01b815287818a81865afa8a9181610985575b5061092b576084898989519162461bcd60e51b8352820152602e60248201527f45524331393637557067726164653a206e657720696d706c656d656e7461746960448201527f6f6e206973206e6f7420555550530000000000000000000000000000000000006064820152fd5b97919293969594970361070f575061094282610b3c565b7fbc7cd75a20ee27fd9adebab32041f755214dbc6bffa90cc0225b39da2e5c2d3b8780a28584511580159061097e576106625750505050505080f35b5080610654565b9091508881813d83116109ad575b61099d8183610a1c565b8101031261079f5751908b6108be565b503d610993565b60248960418a634e487b7160e01b835252fd5b8680fd5b8380fd5b600435906001600160a01b03821682036109e557565b600080fd5b6060810190811067ffffffffffffffff821117610a0657604052565b634e487b7160e01b600052604160045260246000fd5b90601f8019910116810190811067ffffffffffffffff821117610a0657604052565b67ffffffffffffffff8111610a0657601f01601f191660200190565b15610a6157565b608460405162461bcd60e51b815260206004820152602c60248201527f46756e6374696f6e206d7573742062652063616c6c6564207468726f7567682060448201527f64656c656761746563616c6c00000000000000000000000000000000000000006064820152fd5b15610ad257565b608460405162461bcd60e51b815260206004820152602c60248201527f46756e6374696f6e206d7573742062652063616c6c6564207468726f7567682060448201527f6163746976652070726f787900000000000000000000000000000000000000006064820152fd5b803b15610b8c576001600160a01b037f360894a13ba1a3210667c828492db98dca3e2076cc3735a920a3ca505d382bbc911673ffffffffffffffffffffffffffffffffffffffff19825416179055565b608460405162461bcd60e51b815260206004820152602d60248201527f455243313936373a206e657720696d706c656d656e746174696f6e206973206e60448201527f6f74206120636f6e7472616374000000000000000000000000000000000000006064820152fd5b91929015610c575750815115610c0a575090565b3b15610c135790565b606460405162461bcd60e51b815260206004820152601d60248201527f416464726573733a2063616c6c20746f206e6f6e2d636f6e74726163740000006044820152fd5b825190915015610c6a5750805190602001fd5b6040519062461bcd60e51b82528160208060048301528251908160248401526000935b828510610cb0575050604492506000838284010152601f80199101168101030190fd5b8481018201518686016044015293810193859350610c8d565b15610cd057565b608460405162461bcd60e51b815260206004820152602e60248201527f496e697469616c697a61626c653a20636f6e747261637420697320616c72656160448201527f647920696e697469616c697a65640000000000000000000000000000000000006064820152fd5b15610d4157565b608460405162461bcd60e51b815260206004820152602b60248201527f496e697469616c697a61626c653a20636f6e7472616374206973206e6f74206960448201527f6e697469616c697a696e670000000000000000000000000000000000000000006064820152fdfea26469706673582212205ca20ada559ef78bcc4ec0ee2fcb53bcc91d82681942a89f7a82b72ac224f24364736f6c63430008110033",
  "devdoc": {
    "kind": "dev",
    "methods": {},
    "version": 1
  },
  "userdoc": {
    "kind": "user",
    "methods": {},
    "version": 1
  },
  "storageLayout": {
    "storage": [
      {
        "astId": 3666,
        "contract": "contracts/BaseWalletFactory.sol:BaseWalletFactory",
        "label": "factory",
        "offset": 0,
        "slot": "0",
        "type": "t_contract(SmartWalletFactory)3980"
      },
      {
        "astId": 3669,
        "contract": "contracts/BaseWalletFactory.sol:BaseWalletFactory",
        "label": "wallet",
        "offset": 0,
        "slot": "1",
        "type": "t_contract(BaseWallet)3655"
      }
    ],
    "types": {
      "t_contract(BaseWallet)3655": {
        "encoding": "inplace",
        "label": "contract BaseWallet",
        "numberOfBytes": "20"
      },
      "t_contract(SmartWalletFactory)3980": {
        "encoding": "inplace",
        "label": "contract SmartWalletFactory",
        "numberOfBytes": "20"
      }
    }
  }
}