{
  "address": "0xF14439FC31369936B83C3CDa0370660A4232f660",
  "abi": [
    {
      "inputs": [],
      "stateMutability": "nonpayable",
      "type": "constructor"
    },
    {
      "anonymous": false,
      "inputs": [
        {
          "indexed": true,
          "internalType": "address",
          "name": "_wallet",
          "type": "address"
        },
        {
          "indexed": true,
          "internalType": "bytes32",
          "name": "_callID",
          "type": "bytes32"
        }
      ],
      "name": "WalletCreated",
      "type": "event"
    },
    {
      "inputs": [
        {
          "internalType": "address",
          "name": "_impl",
          "type": "address"
        },
        {
          "internalType": "bytes",
          "name": "_call",
          "type": "bytes"
        }
      ],
      "name": "createWallet",
      "outputs": [
        {
          "internalType": "contract IWallet",
          "name": "",
          "type": "address"
        }
      ],
      "stateMutability": "nonpayable",
      "type": "function"
    },
    {
      "inputs": [
        {
          "internalType": "address",
          "name": "_impl",
          "type": "address"
        },
        {
          "internalType": "bytes",
          "name": "_call",
          "type": "bytes"
        },
        {
          "internalType": "uint256",
          "name": "_nonce",
          "type": "uint256"
        }
      ],
      "name": "walletAddress",
      "outputs": [
        {
          "internalType": "address",
          "name": "",
          "type": "address"
        }
      ],
      "stateMutability": "view",
      "type": "function"
    }
  ],
  "transactionHash": "0xecfcd9893516a783ac9fb937419163aee0e220b2626703ad2f81cdef2fad55f3",
  "args": [],
  "numDeployments": 1,
  "solcInputHash": "2c49070ee86209dbfbea884d3d6506ff",
  "bytecode": "0x6080806040523461001657610ca0908161001c8239f35b600080fdfe60406080815260048036101561001457600080fd5b600090813560e01c8063d1e64ad7146101645763eebc8e191461003657600080fd5b3461016057826003193601126101605761004e6102d3565b9067ffffffffffffffff9060243582811161015c57610070903690830161034f565b80516020820120938486528560205286862080549060001982146101495760018201905587516020810191878352898201528881526100ae816102fb565b5190209387519361042c9081860192868410908411176101365750918493916100db9361041386396103c9565b039084f5801561012c579060209373ffffffffffffffffffffffffffffffffffffffff7fc71ce9687e4bf252667e23b2b1cb9433c5357a590c7f9ff6db754257a0be60c19316928391519480a38152f35b83513d84823e3d90fd5b886041602492634e487b7160e01b835252fd5b602488601187634e487b7160e01b835252fd5b8480fd5b5080fd5b509190346102d05760603660031901126102d0576101806102d3565b9167ffffffffffffffff91602435838111610160576101a2903690870161034f565b9182519461023b61024760208098818801208551828101918252604435878201528681526101cf816102fb565b5190209661042c946102076102158851936101ec868a018661032d565b8885528585019861083f8a39895192839187830195866103c9565b03601f19810183528261032d565b875195869361022c868601998a92519283916103a6565b840191518093868401906103a6565b0103808452018261032d565b51902091815192868401947fff0000000000000000000000000000000000000000000000000000000000000086523060601b602186015260358501526055840152605583526080830194838610908611176102bd575083905251902073ffffffffffffffffffffffffffffffffffffffff168152f35b80604188634e487b7160e01b6024945252fd5b80fd5b6004359073ffffffffffffffffffffffffffffffffffffffff821682036102f657565b600080fd5b6060810190811067ffffffffffffffff82111761031757604052565b634e487b7160e01b600052604160045260246000fd5b90601f8019910116810190811067ffffffffffffffff82111761031757604052565b81601f820112156102f65780359067ffffffffffffffff82116103175760405192610384601f8401601f19166020018561032d565b828452602083830101116102f657816000926020809301838601378301015290565b60005b8381106103b95750506000910152565b81810151838201526020016103a9565b909173ffffffffffffffffffffffffffffffffffffffff6060931682526040602083015261040681518092816040860152602086860191016103a6565b601f01601f191601019056fe60406080815261042c908138038061001681610218565b93843982019181818403126102135780516001600160a01b038116808203610213576020838101516001600160401b0394919391858211610213570186601f820112156102135780519061007161006c83610253565b610218565b918083528583019886828401011161021357888661008f930161026e565b813b156101b9577f360894a13ba1a3210667c828492db98dca3e2076cc3735a920a3ca505d382bbc80546001600160a01b031916841790556000927fbc7cd75a20ee27fd9adebab32041f755214dbc6bffa90cc0225b39da2e5c2d3b8480a28051158015906101b2575b61010b575b855160e790816103458239f35b855194606086019081118682101761019e578697849283926101889952602788527f416464726573733a206c6f772d6c6576656c2064656c65676174652063616c6c87890152660819985a5b195960ca1b8a8901525190845af4913d15610194573d9061017a61006c83610253565b91825281943d92013e610291565b508038808080806100fe565b5060609250610291565b634e487b7160e01b84526041600452602484fd5b50826100f9565b855162461bcd60e51b815260048101859052602d60248201527f455243313936373a206e657720696d706c656d656e746174696f6e206973206e60448201526c1bdd08184818dbdb9d1c9858dd609a1b6064820152608490fd5b600080fd5b6040519190601f01601f191682016001600160401b0381118382101761023d57604052565b634e487b7160e01b600052604160045260246000fd5b6001600160401b03811161023d57601f01601f191660200190565b60005b8381106102815750506000910152565b8181015183820152602001610271565b919290156102f357508151156102a5575090565b3b156102ae5790565b60405162461bcd60e51b815260206004820152601d60248201527f416464726573733a2063616c6c20746f206e6f6e2d636f6e74726163740000006044820152606490fd5b8251909150156103065750805190602001fd5b6044604051809262461bcd60e51b825260206004830152610336815180928160248601526020868601910161026e565b601f01601f19168101030190fdfe60806040523615605f5773ffffffffffffffffffffffffffffffffffffffff7f360894a13ba1a3210667c828492db98dca3e2076cc3735a920a3ca505d382bbc54166000808092368280378136915af43d82803e15605b573d90f35b3d90fd5b73ffffffffffffffffffffffffffffffffffffffff7f360894a13ba1a3210667c828492db98dca3e2076cc3735a920a3ca505d382bbc54166000808092368280378136915af43d82803e15605b573d90f3fea2646970667358221220078678769bcb8e26226f9c8fe3c382bff066f349a2a72876c89fded5cbacf27264736f6c6343000811003360406080815261042c908138038061001681610218565b93843982019181818403126102135780516001600160a01b038116808203610213576020838101516001600160401b0394919391858211610213570186601f820112156102135780519061007161006c83610253565b610218565b918083528583019886828401011161021357888661008f930161026e565b813b156101b9577f360894a13ba1a3210667c828492db98dca3e2076cc3735a920a3ca505d382bbc80546001600160a01b031916841790556000927fbc7cd75a20ee27fd9adebab32041f755214dbc6bffa90cc0225b39da2e5c2d3b8480a28051158015906101b2575b61010b575b855160e790816103458239f35b855194606086019081118682101761019e578697849283926101889952602788527f416464726573733a206c6f772d6c6576656c2064656c65676174652063616c6c87890152660819985a5b195960ca1b8a8901525190845af4913d15610194573d9061017a61006c83610253565b91825281943d92013e610291565b508038808080806100fe565b5060609250610291565b634e487b7160e01b84526041600452602484fd5b50826100f9565b855162461bcd60e51b815260048101859052602d60248201527f455243313936373a206e657720696d706c656d656e746174696f6e206973206e60448201526c1bdd08184818dbdb9d1c9858dd609a1b6064820152608490fd5b600080fd5b6040519190601f01601f191682016001600160401b0381118382101761023d57604052565b634e487b7160e01b600052604160045260246000fd5b6001600160401b03811161023d57601f01601f191660200190565b60005b8381106102815750506000910152565b8181015183820152602001610271565b919290156102f357508151156102a5575090565b3b156102ae5790565b60405162461bcd60e51b815260206004820152601d60248201527f416464726573733a2063616c6c20746f206e6f6e2d636f6e74726163740000006044820152606490fd5b8251909150156103065750805190602001fd5b6044604051809262461bcd60e51b825260206004830152610336815180928160248601526020868601910161026e565b601f01601f19168101030190fdfe60806040523615605f5773ffffffffffffffffffffffffffffffffffffffff7f360894a13ba1a3210667c828492db98dca3e2076cc3735a920a3ca505d382bbc54166000808092368280378136915af43d82803e15605b573d90f35b3d90fd5b73ffffffffffffffffffffffffffffffffffffffff7f360894a13ba1a3210667c828492db98dca3e2076cc3735a920a3ca505d382bbc54166000808092368280378136915af43d82803e15605b573d90f3fea2646970667358221220078678769bcb8e26226f9c8fe3c382bff066f349a2a72876c89fded5cbacf27264736f6c63430008110033a264697066735822122050f7fe7daeda6eb8c8bda25f7d4fffae1ee2a740e1b50f81a4b72ba8e98c0fdd64736f6c63430008110033",
  "devdoc": {
    "kind": "dev",
    "methods": {},
    "version": 1
  },
  "userdoc": {
    "kind": "user",
    "methods": {},
    "version": 1
  },
  "storageLayout": {
    "storage": [
      {
        "astId": 3851,
        "contract": "contracts/SmartWalletFactory.sol:SmartWalletFactory",
        "label": "nonces",
        "offset": 0,
        "slot": "0",
        "type": "t_mapping(t_bytes32,t_uint256)"
      }
    ],
    "types": {
      "t_bytes32": {
        "encoding": "inplace",
        "label": "bytes32",
        "numberOfBytes": "32"
      },
      "t_mapping(t_bytes32,t_uint256)": {
        "encoding": "mapping",
        "key": "t_bytes32",
        "label": "mapping(bytes32 => uint256)",
        "numberOfBytes": "32",
        "value": "t_uint256"
      },
      "t_uint256": {
        "encoding": "inplace",
        "label": "uint256",
        "numberOfBytes": "32"
      }
    }
  }
}